:100000000C9434000C9446000C9446000C9446006A
:100010000C9446000C9446000C9446000C94460048
:100020000C9446000C9446000C9446000C94A301DA
:100030000C9446000C9446000C9446000C94460028
:100040000C9446000C9446000C9446000C94460018
:100050000C9446000C9446000C9446000C94460008
:100060000C9446000C94460011241FBECFEFD8E03C
:10007000DEBFCDBF21E0A0E0B1E001C01D92A730FE
:10008000B207E1F70E9448000C94C7010C940000ED
:100090008FE187B923E048E552E060E273E088E24F
:1000A00090E00E947000FFCF282F392F8FB7F8946F
:1000B00030938900209388008FBF08952FB7F8945C
:1000C00080918400909185002FBF0895282F392FAB
:1000D0008FB7F89430938500209384008FBF0895E4
:1000E000E82FF92F20930601F0930201E09301011C
:1000F000109205011082909106018081492F417074
:1001000050E0409550954E6F5F6F842380838091BF
:1001100006012081827090E0809590958D6F9F6F91
:10012000822380837894EFE6F0E080818260808390
:10013000E0E8F0E080818083E1E8F0E080818160A8
:10014000808380818F7D808380EA90E00E945400CC
:10015000089581E088B9809105018370823009F4A7
:1001600052C008F06AC08115A1F090910601E0919B
:100170000101F091020180819E6F8923808380912B
:1001800005018F5F8093050180EC90E00E94540090
:1001900019C090910601E0910101F0910201808166
:1001A000692F617070E0609570956E6F7F6F862328
:1001B0008083809105018F5F8093050188EA90E03C
:1001C0000E9454008091030190910401883592406F
:1001D00009F45AC08091030190910401893592403D
:1001E00009F452C080910301909104018D35924031
:1001F00009F44AC080910301909104018437924030
:1002000009F442C0089590910601E0910101F09136
:1002100002018081492F417050E0409550954E6F0A
:100220005F6F84238083809105018F5F8093050138
:1002300080ED90E00E945400C5CF90910601E091BE
:100240000101F09102018081292F217030E0209579
:1002500030952E6F3F6F82238083809105018C70D3
:100260008093050180910301909104010196909380
:1002700004018093030180EA90E00E94540080E032
:1002800090E00E9466009ECF809105018C708830BE
:1002900009F444C090F4811561F190910601E09158
:1002A0000101F091020180819D6F892380838091FB
:1002B00005018C5F8093050108958C30C9F480910D
:1002C0000601E0910101F09102012081827090E02D
:1002D000809590958D6F9F6F82238083809105011B
:1002E0008370809305011092040110920301089518
:1002F000089580910601E0910101F09102012081B1
:10030000827090E0809590958D6F9F6F822380839F
:10031000809105018C5F809305010895809106010D
:10032000E0910101F09102012081827090E08095BE
:1003300090958D6F9F6F82238083809105018C5FE4
:100340008093050108951F920F920FB60F9211240A
:100350002F933F934F935F936F937F938F939F93CD
:10036000AF93BF93EF93FF930E94A900FF91EF918A
:10037000BF91AF919F918F917F916F915F914F91BD
:100380003F912F910F900FBE0F901F901895F894EA
:02039000FFCF9D
:00000001FF
