:100000000C9434000C9451000C9451000C94510049
:100010000C9451000C9451000C9451000C9451001C
:100020000C9451000C9451000C9451000C94D50088
:100030000C9451000C9451000C9451000C945100FC
:100040000C9451000C9451000C9451000C945100EC
:100050000C9451000C9451000C9451000C945100DC
:100060000C9451000C94510011241FBECFEFD8E026
:10007000DEBFCDBF21E0A6E0B1E001C01D92A131FD
:10008000B207E1F711E0A0E0B1E0E2EAF4E002C07B
:1000900005900D92A630B107D9F70E9453000C9439
:1000A0004F020C9400008FE187B988E592E00E942E
:1000B0002801909307018093060180E090E021E001
:1000C000E0910601F0910701E80FF91F20830196E6
:1000D000883532E09307A1F723E048E552E060E27B
:1000E00073E088E290E00E94980080910601909170
:1000F00007010E94D400F9CF282F392F8FB7F89429
:1001000030938900209388008FBF08952FB7F8940B
:1001100080918400909185002FBF0895282F392F5A
:100120008FB7F89430938500209384008FBF089593
:10013000E82FF92F20930C0110920B01108290915F
:100140000C018081492F417050E0409550954E6FD1
:100150005F6F8423808380910C012081827090E006
:10016000809590958D6F9F6F822380837894EFE6C2
:10017000F0E0808182608083E0E8F0E0808180832D
:10018000E1E8F0E080818160808380818F7D8083E1
:1001900088EB90E00E947C0080E090E00E948E005E
:1001A00088B18C6188B9089508951F921FB61F9277
:1001B00011242F933F938F939F93EF93FF938091FD
:1001C000090190910A01019690930A018093090117
:1001D0008091090190910A018A35924048F08091FE
:1001E000090190910A018E35924010F4419A01C0A4
:1001F00041988091090190910A018537924020F041
:1002000010920A011092090198B1409A88B1837E38
:1002100088B988E08A95F1F7409888B19C71892B5C
:1002200088B9E4E8F0E080819181209188003091E4
:1002300089004897821B930B91838083FF91EF91F4
:100240009F918F913F912F911F901FBE1F901895E6
:100250000F931F93CF93DF939C01029710F422E03A
:1002600030E0E0910D01F0910E0180E090E0A0E01F
:10027000B0E0309791F4009709F448C0821B930BCB
:1002800084309105D0F58A819B816115710581F1DA
:10029000FB0193838283FE0111C040815181028161
:1002A000138142175307D8F04217530799F4109758
:1002B00061F012960C93129713961C933296CF010D
:1002C000DF91CF911F910F91089500930D0110932D
:1002D0000E01F4CF009751F04817590738F0AC01E0
:1002E000DB01CA01BD01DF01F801C3CFEF01F9CF86
:1002F00090930E0180930D01CECFFE01E80FF91F00
:1003000021933193029799838883D9CF40910F012C
:10031000509110014115510541F440910201509155
:1003200003015093100140930F01809100019091BF
:100330000101009741F48DB79EB76091040170915F
:100340000501861B970B4817590708F0B8CF841B87
:10035000950B8217930708F4B2CFB9016E5F7F4FF8
:100360008617970708F4ABCF640F751F70931001C1
:1003700060930F01FA0121933193A1CFCF93DF93C3
:100380009C010097E9F0FC01329713821282C09120
:100390000D01D0910E01DE0180E090E02097A1F4E4
:1003A00080819181280F391F80910F019091100158
:1003B0008217930709F068C0F0931001E0930F01D2
:1003C000DF91CF910895DA01AE17BF0708F042C060
:1003D00012964D915C911397CD014115510599F7F6
:1003E000DC011396FC93EE9312974D915D919D0164
:1003F000240F351FE217F30781F4208131812E5F2E
:100400003F4F240F351FDC0111963C932E93228120
:10041000338113963C932E931297E0E0F0E08A81AB
:100420009B810097B1F5DE018D919D918A0F9B1FF5
:1004300020910F01309110012817390709F63097E4
:1004400059F510920E0110920D01D0931001C09336
:100450000F01B6CFB383A28340815181240F351F92
:10046000A217B30771F44E5F5F4F2D913C91119726
:10047000240F351F3183208312962D913C913383B5
:100480002283009709F0ACCFF0930E01E0930D01A9
:1004900097CFFE01EC01C3CF13821282D6CFF8941E
:0204A000FFCF8C
:0604A20000001101200022
:00000001FF
