:100000000C9434000C9446000C9446000C9446006A
:100010000C9446000C9446000C9446000C94460048
:100020000C9446000C9446000C9446000C94C600B8
:100030000C9446000C9446000C9446000C94460028
:100040000C9446000C9446000C9446000C94460018
:100050000C9446000C9446000C9446000C94460008
:100060000C9446000C94460011241FBECFEFD8E03C
:10007000DEBFCDBF21E0A0E0B1E001C01D92A53000
:10008000B207E1F70E9448000C9426010C9400008E
:100090008FE187B923E048E552E060E273E088E24F
:1000A00090E00E947000FFCF282F392F8FB7F8946F
:1000B00030938900209388008FBF08952FB7F8945C
:1000C00080918400909185002FBF0895282F392FAB
:1000D0008FB7F89430938500209384008FBF0895E4
:1000E000E82FF92F209304011092030110829091C0
:1000F00004018081492F417050E0409550954E6F2A
:100100005F6F84238083809104012081827090E05E
:10011000809590958D6F9F6F822380837894EFE612
:10012000F0E0808182608083E0E8F0E0808180837D
:10013000E1E8F0E080818160808380818F7D808331
:1001400088EB90E00E94540080E090E00E946600FE
:10015000089540910101509102019A01ADECBCEC6F
:100160000E941701929582958F7089279F70892729
:1001700064E1689F9001699F300D11244217530775
:1001800021F488B19CE1892788B908951F921FB690
:100190001F9211242F933F938F939F93EF93FF937D
:1001A0008091010190910201019690930201809348
:1001B000010180910101909102018A35924048F03D
:1001C00080910101909102018E35924010F4419A84
:1001D00001C04198809101019091020185379240C0
:1001E00020F01092020110920101409A88B1837EA2
:1001F00088B988E08A95F1F7409888B18C6188B910
:10020000E4E8F0E0808191812091880030918900BC
:100210004897821B930B91838083FF91EF919F916D
:100220008F913F912F911F901FBE1F901895A29FF5
:10023000B001B39FC001A39F700D811D1124911DBA
:10024000B29F700D811D1124911D0895F894FFCF68
:00000001FF
